:100000000C942A000C942B130C945E130C949113F3
:100010000C9447000C9447000C94510C0C941E0C4B
:100020000C94EB0B0C94B80B0C94600E0C94930E88
:100030000C9447000C9447000C9447000C94470024
:100040000C9424190C9447000C9447000C9447001E
:100050000C94470011241FBECFE5D8E0DEBFCDBF12
:1000600010E0A0E6B0E0E0E0F0E602C005900D92FE
:10007000A23DB107D9F710E0A2EDB0E001C01D929A
:10008000A83FB107E1F70E94542E0C94FE2F0C9468
:100090000000EF92FF920F931F937B018C0120E0F1
:1000A00030E040E05FE40E94F50388238CF0C80153
:1000B000B70120E030E040E05FE40E94C1010E940F
:1000C00055049B01AC01205030404040504806C0D0
:1000D000C801B7010E9455049B01AC01B901CA01D6
:1000E0001F910F91FF90EF900895A0E0B0E0EBE733
:1000F000F0E00C94BE2FDC012B01FA019C919230B0
:1001000008F439C1EB018881823008F433C194309E
:1001100069F4843009F02FC111969C91119789815F
:10012000981709F428C1AFEBB0E025C1843009F479
:1001300021C18230A9F4923009F01DC19A01AD01AC
:1001400088E0EA010990AE01E90109929E0181501F
:10015000C1F7E201898111969C918923818308C1AD
:10016000923009F407C112962D903C901397EB0141
:100170008A819B811496AD90BD90CD90DC901797AD
:10018000EC80FD800E811F819101281B390BB90184
:1001900037FF04C066277727621B730B6032710537
:1001A0000CF061C0121613066CF537014801062EDB
:1001B00004C096948794779467940A94D2F721E0C8
:1001C00030E040E050E004C0220F331F441F551FB1
:1001D0006A95D2F721503040404050402E213F21B7
:1001E00040235123211531054105510521F021E01E
:1001F00030E040E050E079018A01E628F72808293C
:1002000019293CC0232BD1F1260E371E350146019A
:10021000062E04C096948794779467940A94D2F734
:1002200021E030E040E050E004C0220F331F441FC3
:10023000551F6A95D2F721503040404050402A2146
:100240003B214C215D21211531054105510521F04E
:1002500021E030E040E050E059016A01A628B728CB
:10026000C828D9280BC0821593052CF01C01AA249C
:10027000BB24650103C0EE24FF24870111969C91E5
:10028000D20111968C91981709F445C0992339F041
:10029000A80197012A193B094C095D0906C0A6016E
:1002A00095012E193F09400B510B57FD08C01182D3
:1002B0003382228224833583468357831DC081E0A5
:1002C00081833382228288279927DC01821B930B4A
:1002D000A40BB50B84839583A683B7830DC0220F2F
:1002E000331F441F551F24833583468357838281E0
:1002F000938101979383828324813581468157813D
:10030000DA01C9010197A109B1098F5F9F4FAF4F72
:10031000BF4328F30BC0918333822282EA0CFB1C7B
:100320000C1D1D1DE482F5820683178383E0808304
:10033000248135814681578157FF1AC0C901AA27F8
:1003400097FDA095BA2F81709070A070B0705695EF
:10035000479537952795822B932BA42BB52B848318
:100360009583A683B7838281938101969383828349
:10037000DF0101C0D201CD01CDB7DEB7E2E10C94BF
:10038000DA2FA0E2B0E0E7ECF1E00C94CA2F698329
:100390007A838B839C832D833E834F835887E9E048
:1003A000EE2EF12CEC0EFD1ECE010196B7010E943F
:1003B0007E058E010F5E1F4FCE010596B8010E948B
:1003C0007E058A8991E089278A8BC701B801AE0131
:1003D000475E5F4F0E9475000E94A904A096E6E068
:1003E0000C94E62FA0E2B0E0E8EFF1E00C94CA2F05
:1003F00069837A838B839C832D833E834F835887C5
:10040000F9E0EF2EF12CEC0EFD1ECE010196B701A6
:100410000E947E058E010F5E1F4FCE010596B8012A
:100420000E947E05C701B801AE01475E5F4F0E9482
:1004300075000E94A904A096E6E00C94E62FA0E2C5
:10044000B0E0E5E2F2E00C94BE2F69837A838B83FF
:100450009C832D833E834F835887CE010196BE0136
:10046000675F7F4F0E947E05CE010596BE016F5EDD
:100470007F4F0E947E059985923088F0898982306D
:10048000C8F0943019F4823051F404C0843029F457
:10049000923081F48FEB90E0C6C0923049F420E0B6
:1004A0009A858A89981321E02A87CE010996BBC0D4
:1004B000823049F420E09A858A89981321E02A8BBA
:1004C000CE014196B0C02D843E844F8458886D88FB
:1004D0007E888F88988CEE24FF248701AA24BB2471
:1004E000650140E050E060E070E0E0E0F0E0C10174
:1004F00081709070892BE9F0E60CF71C081D191D1E
:100500009A01AB012A0D3B1D4C1D5D1D80E090E062
:10051000A0E0B0E0E614F7040805190520F481E036
:1005200090E0A0E0B0E0BA01A901480F591F6A1F8E
:100530007B1FAA0CBB1CCC1CDD1C97FE08C081E0F5
:1005400090E0A0E0B0E0A82AB92ACA2ADB2A3196B6
:10055000E032F10549F0660C771C881C991C569412
:10056000479437942794C3CFFA85EA892B893C892D
:100570008B859C85280F391F2E5F3F4F17C0CA01FE
:1005800081709070892B61F016950795F794E79428
:1005900080E090E0A0E0B0E8E82AF92A0A2B1B2BC3
:1005A00076956795579547952F5F3F4F77FDE7CF36
:1005B0000CC0440F551F661F771F17FD4160EE0CDE
:1005C000FF1C001F111F21503040403090E05907A0
:1005D00090E0690790E4790760F32B8F3C8FDB0193
:1005E000CA018F779070A070B07080349105A1051A
:1005F000B10561F447FD0AC0E114F10401051105DC
:1006000029F0405C5F4F6F4F7F4F40781A8EFE1786
:1006100011F081E08A8F4D8F5E8F6F8F78A383E01A
:10062000898FCE0149960E94A904A096E2E10C941C
:10063000DA2FA8E1B0E0EFE1F3E00C94C62F698374
:100640007A838B839C832D833E834F835887B9E0C5
:10065000EB2EF12CEC0EFD1ECE010196B7010E948F
:100660007E058E010F5E1F4FCE010596B8010E94D8
:100670007E052985223008F47EC03989323010F495
:10068000B8017CC08A859A8989278A87243011F02D
:10069000223031F4231709F06EC06FEB70E06EC0AA
:1006A000343039F41D861E861F86188A1C861B86E8
:1006B00004C0323021F484E08987B7015FC02B8504
:1006C0003C858B899C89281B390B3C872B87ED84C3
:1006D000FE840F851889AD88BE88CF88D88CEA142F
:1006E000FB040C051D0540F4EE0CFF1C001F111F40
:1006F000215030403C872B8720E030E040E050E044
:1007000080E090E0A0E0B0E460E070E0EA14FB0478
:100710000C051D0540F0282B392B4A2B5B2BEA18C2
:10072000FB080C091D09B695A79597958795EE0CC2
:10073000FF1C001F111F6F5F7F4F6F31710531F775
:10074000DA01C9018F779070A070B0708034910584
:10075000A105B10561F427FD0AC0E114F10401050A
:10076000110529F0205C3F4F4F4F5F4F20782D87B8
:100770003E874F87588BBE01675F7F4FCB010E943A
:10078000A9046896EAE00C94E22FA8E1B0E0EBEC53
:10079000F3E00C94CA2F69837A838B839C832D8327
:1007A0003E834F83588789E0E82EF12CEC0EFD1E26
:1007B000CE010196B7010E947E058E010F5E1F4F8C
:1007C000CE010596B8010E947E058985823040F0F1
:1007D0008989823028F0C701B8010E94F60501C05E
:1007E0008FEF6896E6E00C94E62FA8E1B0E0EBEF1F
:1007F000F3E00C94CA2F69837A838B839C832D83C7
:100800003E834F83588789E0E82EF12CEC0EFD1EC5
:10081000CE010196B7010E947E058E010F5E1F4F2B
:10082000CE010596B8010E947E058985823040F090
:100830008989823028F0C701B8010E94F60501C0FD
:100840008FEF6896E6E00C94E62FA8E1B0E0EBE2CB
:10085000F4E00C94CA2F69837A838B839C832D8365
:100860003E834F83588789E0E82EF12CEC0EFD1E65
:10087000CE010196B7010E947E058E010F5E1F4FCB
:10088000CE010596B8010E947E058985823040F030
:100890008989823028F0C701B8010E94F60501C09D
:1008A00081E06896E6E00C94E62FACE0B0E0EBE582
:1008B000F4E00C94CE2F69837A838B839C83CE01E2
:1008C0000196BE016B5F7F4F0E947E058D81823055
:1008D00061F1823050F1843021F48E81882351F10E
:1008E0002EC02F81388537FD20C06E812F31310514
:1008F0001CF06623F9F023C08EE190E0821B930B7D
:1009000029853A854B855C8504C056954795379572
:1009100027958A95D2F76623B1F05095409530958A
:1009200021953F4F4F4F5F4F0EC020E030E040E039
:1009300050E009C02FEF3FEF4FEF5FE704C020E02A
:1009400030E040E050E8B901CA012C96E2E00C9496
:10095000EA2FDF92EF92FF920F931F93FC01E48046
:10096000F58006811781D1808081823048F480E053
:1009700090E0A0E1B0E0E82AF92A0A2B1B2BA5C0E1
:10098000843009F49FC0823021F4EE24FF248701D3
:1009900005C0E114F1040105110519F4E0E0F0E0EF
:1009A00096C0628173819FEF623879070CF05BC05B
:1009B00022E83FEF261B370B2A3131052CF020E0CF
:1009C00030E040E050E02AC0B801A701022E04C088
:1009D00076956795579547950A94D2F781E090E010
:1009E000A0E0B0E004C0880F991FAA1FBB1F2A9582
:1009F000D2F70197A109B1098E219F21A023B1232C
:100A00000097A105B10521F081E090E0A0E0B0E001
:100A10009A01AB01282B392B4A2B5B2BDA01C90138
:100A20008F779070A070B07080349105A105B105EA
:100A300039F427FF09C0205C3F4F4F4F5F4F04C080
:100A4000215C3F4F4F4F5F4FE0E0F0E02030A0E0EF
:100A50003A07A0E04A07A0E45A0710F0E1E0F0E00E
:100A600079018A0127C06038710564F5FB01E158FE
:100A7000FF4FD801C7018F779070A070B07080349D
:100A80009105A105B10539F4E7FE0DC080E490E0C1
:100A9000A0E0B0E004C08FE390E0A0E0B0E0E80E9A
:100AA000F91E0A1F1B1F17FF05C016950795F7941F
:100AB000E794319687E016950795F794E7948A9521
:100AC000D1F705C0EE24FF248701EFEFF0E06E2F91
:100AD000679566276795902F9F77D794DD24D794E5
:100AE0008E2F8695492F462B582F5D29B701CA01B5
:100AF0001F910F91FF90EF90DF900895FC01DB01B3
:100B0000408151812281622F6F7770E0221F22275E
:100B1000221F9381892F880F822B282F30E0991F65
:100B20009927991F11969C93119721153105A9F5C5
:100B3000411551056105710511F482E037C082E865
:100B40009FEF13969C938E9312979A01AB0167E0E7
:100B5000220F331F441F551F6A95D1F783E08C93F2
:100B60000DC0220F331F441F551F12968D919C916B
:100B70001397019713969C938E931297203080E0E1
:100B8000380780E0480780E4580758F314962D93FF
:100B90003D934D935C93179708952F3F310579F45A
:100BA000411551056105710519F484E08C93089590
:100BB00064FF03C081E08C9312C01C9210C02F57B9
:100BC000304013963C932E93129783E08C9387E0EA
:100BD000440F551F661F771F8A95D1F770641496CE
:100BE0004D935D936D937C93179708951F93DC014C
:100BF000FB019C91923008F447C08081823008F458
:100C000043C0943051F411961C91843099F5818140
:100C1000682F70E0611B71093FC0843021F0923071
:100C200031F48230B9F18181882389F12DC0119688
:100C30001C9111978230F1F081811817D9F4129626
:100C40002D913C911397828193818217930794F0A1
:100C500028173907BCF014968D919D910D90BC9189
:100C6000A02D2481358146815781281739074A07ED
:100C70005B0718F4112341F00AC082179307A407F9
:100C8000B50740F4112319F061E070E005C06FEF83
:100C90007FEF02C060E070E0CB011F910895DF9309
:100CA000CF9300D000D0CDB7DEB71C82ABE2B0E06E
:100CB000EBE2F0E080818D7F8C93AAE2B0E0EAE283
:100CC000F0E0808188608C93AAE2B0E0EAE2F0E094
:100CD000808180618C931B828B818F7B8B838B8146
:100CE00086608B838B818F7C8B838B81877F8B83CB
:100CF0008B8180688B83E0E4F0E08B8180838CE0E3
:100D000090E09A83898389819A819F779A838983E6
:100D1000E9E2F0E089818083A0E4B0E0E0E4F0E083
:100D2000208189819A81892F9927822B8C938C81AC
:100D30000F900F900F900F90CF91DF910895DF9358
:100D4000CF9300D0CDB7DEB78A831982EBE2F0E013
:100D50008081882F90E0807290700097B9F3ECE268
:100D6000F0E08A81808389810F900F90CF91DF918D
:100D70000895DF93CF9300D00F92CDB7DEB79B835A
:100D80008A8319828A819B81009719F481E0898383
:100D90000BC0EBE2F0E080818823DCF7ECE2F0E0CE
:100DA0008081EA81FB81808389810F900F900F9071
:100DB000CF91DF910895DF93CF9300D00F92CDB7FD
:100DC000DEB79B838A8319828A819B81009769F4AD
:100DD00081E089830FC0EA81FB8180810E949F06A8
:100DE0008A819B8101969B838A83EA81FB81808132
:100DF000882389F789810F900F900F90CF91DF9111
:100E00000895DF93CF9300D00F92CDB7DEB79B83C9
:100E10008A8319828A819B81009711F481E08983FA
:100E20008A819B810E94B906EA81FB8180818D3095
:100E300029F0EA81FB8180818A3051F4EA81FB81CB
:100E4000108289810F900F900F90CF91DF910895BC
:100E50008A819B8101969B838A83E2CFDF93CF9324
:100E6000CDB7DEB7AEE4B0E0EEE4F0E080818061C3
:100E70008C93AEE4B0E0EEE4F0E0808188608C9387
:100E8000AFE4B0E0EFE4F0E0808182608C93AFE407
:100E9000B0E0EFE4F0E080818E7F8C93AFE4B0E0CF
:100EA000EFE4F0E0808180688C93AFE4B0E0EFE4A1
:100EB000F0E080818F7B8C93AFE4B0E0EFE4F0E072
:100EC000808180628C93AFE4B0E0EFE4F0E0808159
:100ED0008F7E8C93AFE4B0E0EFE4F0E08081877F19
:100EE0008C93AFE4B0E0EFE4F0E080818B7F8C93F3
:100EF000AEE4B0E0EEE4F0E080818F7D8C93AEE470
:100F0000B0E0EEE4F0E080818B7F8C93AEE4B0E063
:100F1000EEE4F0E0808182608C93AEE4B0E0EEE439
:100F2000F0E080818E7F8C93CF91DF910895DF93E5
:100F3000CF93CDB7DEB70E942E07CF91DF910895F2
:100F4000DF93CF9300D000D0CDB7DEB79C838B83E7
:100F50008B819C810097D1F088EE93E02B813C81BE
:100F6000B9010E94882FCB019A83898389819A8154
:100F7000009741F0E6E4F0E089819A81019791833E
:100F8000808304C0E6E4F0E0118210820F900F909D
:100F90000F900F90CF91DF910895DF93CF9300D002
:100FA00000D0CDB7DEB79C838B838B819C8100976B
:100FB00009F18B819C819C0140E050E080E492E447
:100FC000AFE0B0E0BC01CD010E949C2FDA01C90165
:100FD0009A83898389819A81009741F0E6E4F0E061
:100FE00089819A8101979183808304C0E6E4F0E0CF
:100FF000118210820F900F900F900F90CF91DF9180
:101000000895EF92FF920F931F93DF93CF9300D039
:101010000F92CDB7DEB78B838B81853680F58B81C0
:10102000E82EFF2400E010E0E6E4F0E0808191810A
:1010300001969C0140E050E0C801B7010E945D2F7D
:10104000DC01CB0124E630E040E050E0BC01CD0102
:101050000E949C2FDA01C9019A83898389819A8130
:101060008230910540F0EAE4F0E089819A810197AD
:101070009183808304C0EAE4F0E0118210820F9033
:101080000F900F90CF91DF911F910F91FF90EF90F4
:101090000895EF92FF920F931F93DF93CF9300D0A9
:1010A0000F92CDB7DEB78B838B81853680F58B8130
:1010B000E82EFF2400E010E0E6E4F0E0808191817A
:1010C00001969C0140E050E0C801B7010E945D2FED
:1010D000DC01CB0124E630E040E050E0BC01CD0172
:1010E0000E949C2FDA01C9019A83898389819A81A0
:1010F0008230910540F0E8E4F0E089819A8101971F
:101100009183808304C0E8E4F0E0118210820F90A4
:101110000F900F90CF91DF911F910F91FF90EF9063
:101120000895DF93CF9300D0CDB7DEB79A8389833C
:10113000ECE4F0E089819A81918380830F900F9095
:10114000CF91DF910895DF93CF9300D0CDB7DEB775
:101150009A83898389819A818330910530F0E6E40E
:10116000F0E089819A81918380830F900F90CF91D5
:10117000DF910895DF93CF9300D0CDB7DEB79A8388
:101180008983EAE4F0E089819A81918380830F90DA
:101190000F90CF91DF910895DF93CF9300D0CDB71B
:1011A000DEB79A838983E8E4F0E089819A819183AC
:1011B00080830F900F90CF91DF910895EF92FF926F
:1011C0000F931F93DF93CF9300D00F92CDB7DEB76D
:1011D00089837B836A838981853628F58A819B810F
:1011E0008330910500F18A819B810E94A308898147
:1011F000E82EFF2400E010E08A819B819C0140E002
:1012000050E0C801B7010E945D2FDC01CB0124E64C
:1012100030E040E050E0BC01CD010E949C2FDA019B
:10122000C9010E94BA080F900F900F90CF91DF91E3
:101230001F910F91FF90EF900895EF92FF920F93FF
:101240001F93DF93CF9300D00F92CDB7DEB7898382
:101250007B836A838981853628F58A819B818330E7
:10126000910500F18A819B810E94A3088981E82E63
:10127000FF2400E010E08A819B819C0140E050E067
:10128000C801B7010E945D2FDC01CB0124E630E0EC
:1012900040E050E0BC01CD010E949C2FDA01C90161
:1012A0000E94CC080F900F900F90CF91DF911F916B
:1012B0000F91FF90EF900895DF93CF9300D0CDB7BB
:1012C000DEB79A83898389819A81009741F0ECE4A3
:1012D000F0E080819181E981FA81918380830F9090
:1012E0000F90CF91DF910895DF93CF93CDB7DEB705
:1012F000AEE4B0E0EEE4F0E0808180688C93CF91C2
:10130000DF910895DF93CF93CDB7DEB7AEE4B0E0C1
:10131000EEE4F0E080818F778C93CF91DF91089598
:10132000DF93CF9300D00F92CDB7DEB78983898149
:10133000282F30E03B832A838A819B81009731F0FC
:101340002A813B812130310549F00FC0AEE4B0E085
:10135000EEE4F0E080818F7B8C9307C0AEE4B0E0D8
:10136000EEE4F0E0808180648C930F900F900F90FA
:10137000CF91DF910895DF93CF9300D0CDB7DEB743
:101380009A83898389819A81009741F0E6E4F0E0AD
:1013900080819181E981FA81918380830F900F9000
:1013A000CF91DF910895DF93CF9300D000D0CDB7D8
:1013B000DEB79C838B838B819C810097D1F080E486
:1013C0009FE12B813C81B9010E94882FCB019A8338
:1013D000898389819A81009741F0E6E4F0E0898170
:1013E0009A8101979183808304C0E6E4F0E0118242
:1013F00010820F900F900F900F90CF91DF91089572
:10140000DF93CF9300D000D0CDB7DEB79C838B8322
:101410008B819C81009709F18B819C819C0140E02C
:1014200050E080E092E1AAE7B0E0BC01CD010E946B
:101430009C2FDA01C9019A83898389819A81009757
:1014400041F0E6E4F0E089819A81019791838083FD
:1014500004C0E6E4F0E0118210820F900F900F902C
:101460000F90CF91DF910895EF92FF920F931F930A
:10147000DF93CF9300D00F92CDB7DEB78B838B81F4
:10148000853680F58B81E82EFF2400E010E0E6E44D
:10149000F0E08081918101969C0140E050E0C8011C
:1014A000B7010E945D2FDC01CB0124E630E040E073
:1014B00050E0BC01CD010E949C2FDA01C9019A8342
:1014C000898389819A818230910540F0EAE4F0E0D5
:1014D00089819A8101979183808304C0EAE4F0E0D6
:1014E000118210820F900F900F90CF91DF911F917A
:1014F0000F91FF90EF900895DF93CF93CDB7DEB7B4
:10150000A9E5B0E0E9E5F0E0808184608C93CF91BB
:10151000DF910895DF93CF93CDB7DEB7A9E5B0E0B3
:10152000E9E5F0E080818B7F8C93CF91DF91089586
:10153000DF93CF93CDB7DEB7A9E5B0E0E9E5F0E002
:10154000808180618C93CF91DF910895DF93CF9359
:10155000CDB7DEB7A9E5B0E0E9E5F0E080818F7EA8
:101560008C93CF91DF910895DF93CF93CDB7DEB702
:10157000A9E5B0E0E9E5F0E0808188608C93CF9147
:10158000DF910895DF93CF93CDB7DEB7A9E5B0E043
:10159000E9E5F0E08081877F8C93CF91DF9108951A
:1015A000DF93CF93CDB7DEB7A9E5B0E0E9E5F0E092
:1015B000808180628C93CF91DF910895DF93CF93E8
:1015C000CDB7DEB7A9E5B0E0E9E5F0E080818F7D39
:1015D0008C93CF91DF910895DF93CF93CDB7DEB792
:1015E000E8E5F0E0808186958695882F90E081700F
:1015F00090700097A9F3A8E5B0E0E8E5F0E08081FD
:1016000084608C93CF91DF910895DF93CF93CDB712
:10161000DEB7E8E5F0E0808182958F70882F90E05A
:10162000817090700097A9F3A8E5B0E0E8E5F0E0DC
:10163000808180618C93CF91DF910895DF93CF9368
:10164000CDB7DEB7E8E5F0E0808186958695869592
:10165000882F90E0817090700097A1F3A8E5B0E02A
:10166000E8E5F0E0808188608C93CF91DF91089568
:10167000DF93CF93CDB7DEB7E8E5F0E080818295C8
:1016800086958770882F90E0817090700097A1F305
:10169000A8E5B0E0E8E5F0E0808180628C93CF912E
:1016A000DF910895DF93CF9300D0CDB7DEB79A8353
:1016B000898389819A81009731F089819A819093F9
:1016C000D3008093D2000F900F90CF91DF910895B7
:1016D000DF93CF9300D0CDB7DEB79A83898389811A
:1016E0009A81009731F089819A819093D5008093F7
:1016F000D4000F900F90CF91DF910895DF93CF9397
:1017000000D0CDB7DEB79A83898389819A8100970B
:1017100031F089819A819093D7008093D6000F9001
:101720000F90CF91DF910895DF93CF9300D0CDB785
:10173000DEB79A83898389819A81009731F0898104
:101740009A819093D9008093D8000F900F90CF91F9
:10175000DF910895DF93CF93CDB7DEB7A0E5B0E07A
:10176000E0E5F0E0808181608C93CF91DF91089576
:101770001F920F920FB60F9211242F933F934F9306
:101780005F936F937F938F939F93AF93BF93EF93E9
:10179000FF93DF93CF93CDB7DEB78091D2009091C6
:1017A000D300009729F0E091D200F091D300099581
:1017B000CF91DF91FF91EF91BF91AF919F918F9169
:1017C0007F916F915F914F913F912F910F900FBE3D
:1017D0000F901F9018951F920F920FB60F92112421
:1017E0002F933F934F935F936F937F938F939F9329
:1017F000AF93BF93EF93FF93DF93CF93CDB7DEB754
:101800008091D6009091D700009729F0E091D60002
:10181000F091D7000995CF91DF91FF91EF91BF91A2
:10182000AF919F918F917F916F915F914F913F9178
:101830002F910F900FBE0F901F9018951F920F922F
:101840000FB60F9211242F933F934F935F936F9393
:101850007F938F939F93AF93BF93EF93FF93DF9308
:10186000CF93CDB7DEB78091D4009091D50000978B
:1018700029F0E091D400F091D5000995CF91DF9146
:10188000FF91EF91BF91AF919F918F917F916F9158
:101890005F914F913F912F910F900FBE0F901F902E
:1018A00018951F920F920FB60F9211242F933F930A
:1018B0004F935F936F937F938F939F93AF93BF9358
:1018C000EF93FF93DF93CF93CDB7DEB78091D8002E
:1018D0009091D900009729F0E091D800F091D900BB
:1018E0000995CF91DF91FF91EF91BF91AF919F91BA
:1018F0008F917F916F915F914F913F912F910F90B9
:101900000FBE0F901F901895DF93CF93CDB7DEB722
:101910008091DA00882379F4E6E4F0E08081918117
:101920009093F7008093F60080E00E94900981E098
:101930008093DA0024C08091DA00813079F4E6E403
:10194000F0E0808191819093F5008093F40081E034
:101950000E94900982E08093DA0011C08091DA0041
:10196000823069F4E6E4F0E0808191819093F300A5
:101970008093F2000E94DE0A83E08093DA00CF9128
:10198000DF910895DF93CF93CDB7DEB728970FB6D9
:10199000F894DEBF0FBECDBF9E838D8378876F83A3
:1019A0001C821B821A82198284E89CE00E94940B9C
:1019B00081E00E9490090E94D00A0E945811109262
:1019C000DA008091DA008330E0F32091F400309166
:1019D000F5008091F6009091F700A901481B590B82
:1019E000CA019C838B832091F2003091F300809197
:1019F000F4009091F500A901481B590BCA019A8384
:101A000089832B813C8189819A81820F931F9C015C
:101A100040E050E080E492E4AFE0B0E0BC01CD01F2
:101A20000E949C2FDA01C901ED81FE8180839183A0
:101A3000A283B3832B813C8184E690E0289FA001A0
:101A4000299F500D389F500D11242B813C81898195
:101A50009A81280F391FCA01B9010E94882FCB0132
:101A6000EF81F885808328960FB6F894DEBF0FBE0D
:101A7000CDBFCF91DF910895DF93CF93CDB7DEB780
:101A8000A3E5B0E0E3E5F0E08081877F8C93A3E5F8
:101A9000B0E0E3E5F0E0808180648C93A3E5B0E002
:101AA000E3E5F0E080818F778C93A3E5B0E0E3E598
:101AB000F0E0808180628C93A3E5B0E0E3E5F0E0A4
:101AC00080818F7E8C93A3E5B0E0E3E5F0E0808138
:101AD0008B7F8C93A3E5B0E0E3E5F0E0808182604A
:101AE0008C93A3E5B0E0E3E5F0E080818E7F8C93FA
:101AF000CF91DF910895DF93CF930F92CDB7DEB7EB
:101B00008983E2E5F0E0898180830F90CF91DF91B6
:101B10000895DF93CF930F92CDB7DEB78983ECE5BD
:101B2000F0E0898180830F90CF91DF910895DF935A
:101B3000CF9300D0CDB7DEB79A838983E2E5F0E09A
:101B40008081E981FA8180830F900F90CF91DF919E
:101B50000895DF93CF93CDB7DEB7A9E5B0E0E9E50F
:101B6000F0E0808181608C93CF91DF910895DF93C5
:101B7000CF93CDB7DEB7A9E5B0E0E9E5F0E080812D
:101B80008E7F8C93CF91DF910895DF93CF93CDB764
:101B9000DEB7A9E5B0E0E9E5F0E0808182608C93F2
:101BA000CF91DF910895DF93CF93CDB7DEB7A9E54D
:101BB000B0E0E9E5F0E080818D7F8C93CF91DF91FB
:101BC0000895DF93CF9300D0CDB7DEB79A83898392
:101BD00089819A81009731F089819A819093DC0004
:101BE0008093DB000F900F90CF91DF910895DF93EA
:101BF000CF9300D0CDB7DEB79A83898389819A814C
:101C0000009731F089819A819093DE008093DD0006
:101C10000F900F90CF91DF910895DF93CF93CDB7C1
:101C2000DEB7E8E5F0E08081882F90E08170907069
:101C30000097B9F3A8E5B0E0E8E5F0E080818160C5
:101C40008C93CF91DF910895DF93CF93CDB7DEB71B
:101C5000E8E5F0E080818695882F90E081709070B3
:101C60000097B1F3A8E5B0E0E8E5F0E0808182609C
:101C70008C93CF91DF910895DF93CF930F92CDB7DF
:101C8000DEB7898389818536B8F4898194E6692F26
:101C90000E947C2F482F50E0CA019C01220F331F65
:101CA000C9019695982F882797958795821B930B46
:101CB000840F951F0E94890D0F90CF91DF91089599
:101CC0001F920F920FB60F9211242F933F934F93B1
:101CD0005F936F937F938F939F93AF93BF93EF9394
:101CE000FF93DF93CF93CDB7DEB78091DD00909166
:101CF000DE00009729F0E091DD00F091DE0009950B
:101D0000CF91DF91FF91EF91BF91AF919F918F9113
:101D10007F916F915F914F913F912F910F900FBEE7
:101D20000F901F9018951F920F920FB60F921124CB
:101D30002F933F934F935F936F937F938F939F93D3
:101D4000AF93BF93EF93FF93DF93CF93CDB7DEB7FE
:101D50008091DB009091DC00009729F0E091DB009E
:101D6000F091DC000995CF91DF91FF91EF91BF9148
:101D7000AF919F918F917F916F915F914F913F9123
:101D80002F910F900FBE0F901F901895DF93CF9358
:101D90000F92CDB7DEB719820E94630FADE2B0E0BB
:101DA000EDE2F0E0808180618C93ADE2B0E0EDE2A5
:101DB000F0E0808181608C93ADE2B0E0EDE2F0E094
:101DC000808180648C93A8E3B0E0E8E3F0E0808158
:101DD00080618C931982ADE2B0E0EDE2F0E08081A9
:101DE0008F7D8C931982ADE2B0E0EDE2F0E080816E
:101DF000877F8C93ADE2B0E0EDE2F0E080818B7FF5
:101E00008C931982ADE2B0E0EDE2F0E080818E7F4C
:101E10008C93198289810F90CF91DF910895DF9380
:101E2000CF930F92CDB7DEB78983A8E3B0E0E8E3A4
:101E3000F0E080818F7E8C93EFE2F0E089818083F7
:101E4000EEE2F0E080818823DCF7EFE2F0E08081D1
:101E50000F90CF91DF910895DF93CF930F92CDB77D
:101E6000DEB78983EFE2F0E089818083EEE2F0E083
:101E700080818823DCF7EFE2F0E080810F90CF9142
:101E8000DF910895DF93CF9300D000D0CDB7DEB7B8
:101E90008A837C836B831982EFE2F0E08A818083FE
:101EA000EEE2F0E080818823D9F3EFE2F0E0808178
:101EB000EB81FC81808389810F900F900F900F90B0
:101EC000CF91DF910895DF93CF93CDB7DEB7A7E32E
:101ED000B0E0E7E3F0E08081806B8C93CF91DF91FD
:101EE0000895DF93CF93CDB7DEB7A7E3B0E0E7E384
:101EF000F0E0808180648C93CF91DF910895DF932F
:101F0000CF930F92CDB7DEB781E08983A0E2B0E036
:101F1000E0E2F0E080E1808380818C93E1E2F0E018
:101F20001082A1E2B0E0E1E2F0E080818D7F8C934D
:101F3000A1E2B0E0E1E2F0E0808181608C9319825F
:101F4000A6E5B0E0E6E5F0E0808184608C938981CD
:101F50000F90CF91DF910895DF93CF9300D0CDB74D
:101F6000DEB78A831982E2E2F0E08A81880F8083FB
:101F7000E6E5F0E084EC808389810F900F90CF91AB
:101F8000DF910895DF93CF930F92CDB7DEB719821B
:101F9000E6E5F0E080818823DCF7E1E2F0E0808193
:101FA000882F90E0887F90708836910599F1E1E262
:101FB000F0E08081882F90E0887F907080369105D6
:101FC00049F1E1E2F0E08081882F90E0887F907015
:101FD000883A9105F9F0E1E2F0E08081882F90E005
:101FE000887F9070803B9105A9F0E1E2F0E080816C
:101FF000882F90E0887F90708037910559F0E1E25A
:10200000F0E08081882F90E0887F9070883791057C
:1020100009F0BECF89810F90CF91DF910895DF93B2
:10202000CF930F92CDB7DEB71982E6E5F0E084EAF0
:102030008083E6E5F0E080818823DCF7E1E2F0E0F0
:102040008081882F90E0887F90708830910511F012
:1020500081E0898389810F90CF91DF910895DF938B
:10206000CF9300D0CDB7DEB71982E6E5F0E084EA81
:102070008083E6E5F0E080818823DCF7E1E2F0E0B0
:10208000808189810F900F90CF91DF910895DF9328
:10209000CF9300D000D00F92CDB7DEB78A836B8389
:1020A0001982E3E2F0E08A81882F90E0880F991F7F
:1020B000982F8B818170892B8083E6E5F0E084E89E
:1020C0008083E6E5F0E080818823DCF7E1E2F0E060
:1020D0008081E1E2F0E0808189810F900F900F9084
:1020E0000F900F90CF91DF910895DF93CF9300D0A1
:1020F000CDB7DEB78A8385E08983E3E2F0E08A81A9
:102100008083E6E5F0E084E88083E6E5F0E0808126
:102110008823DCF7E1E2F0E08081882F90E0887F7F
:1021200090708832910509F4198289810F900F907F
:10213000CF91DF910895DF93CF9300D000D0CDB73A
:10214000DEB79B838A831982E6E5F0E084EC808326
:10215000E6E5F0E080818823DCF7E1E2F0E08081D1
:10216000882F90E0887F90708038910551F0E1E2EF
:10217000F0E08081882F90E0887F90708039910511
:1021800031F4E3E2F0E08081EA81FB818083E1E2E7
:10219000F0E08081882F90E0887F907088389105EA
:1021A00051F0E1E2F0E08081882F90E0887F90702C
:1021B0008839910529F4E3E2F0E080818C8302C044
:1021C00089818C838C810F900F900F900F90CF910D
:1021D000DF910895DF93CF9300D00F92CDB7DEB794
:1021E0009B838A8389E08983E6E5F0E084EC808341
:1021F000E6E5F0E080818823DCF7E1E2F0E0808131
:10220000882F90E0887F90708035910539F4E3E263
:10221000F0E08081EA81FB818083198289810F90BF
:102220000F900F90CF91DF910895DF93CF9300D05F
:102230000F92CDB7DEB79B838A8389E08983E6E579
:10224000F0E084E88083E6E5F0E080818823DCF735
:10225000E1E2F0E08081882F90E0887F90708835FF
:10226000910539F4E3E2F0E08081EA81FB8180832B
:10227000198289810F900F900F90CF91DF9108956F
:10228000DF93CF930F92CDB7DEB71982E6E5F0E08A
:1022900084E98083E6E5F0E08081882F90E080711A
:1022A00090700097B9F789810F90CF91DF910895D1
:1022B000DF93CF930F92CDB7DEB71982AFE5B0E0D1
:1022C000EFE5F0E0808180688C9389810F90CF9159
:1022D000DF910895DF93CF930F92CDB7DEB71982C8
:1022E000AFE5B0E0EFE5F0E080818F778C938981F6
:1022F0000F90CF91DF910895DF93CF9300D000D05E
:102300000F92CDB7DEB789837B836A838981282FBB
:1023100030E03D832C838C819D818130910581F05B
:102320002C813D812230310591F08C819D81009777
:10233000A1F48A819B819093E0008093DF000DC01F
:102340008A819B819093E2008093E10006C08A819C
:102350009B819093E4008093E3000F900F900F9087
:102360000F900F90CF91DF910895DF93CF9300D01E
:102370000F92CDB7DEB789838981282F30E03B8368
:102380002A838A819B818130910589F02A813B8152
:1023900022303105A1F08A819B810097B9F4ABE529
:1023A000B0E0EBE5F0E0808180648C930FC0ABE59A
:1023B000B0E0EBE5F0E0808180688C9307C0ABE58E
:1023C000B0E0EBE5F0E0808180628C930F900F909D
:1023D0000F90CF91DF910895DF93CF9300D00F92AC
:1023E000CDB7DEB789838981282F30E03B832A83EC
:1023F0008A819B818130910589F02A813B8122303D
:102400003105A1F08A819B810097B9F4ABE5B0E07A
:10241000EBE5F0E080818F7B8C930FC0ABE5B0E003
:10242000EBE5F0E080818F778C9307C0ABE5B0E0FF
:10243000EBE5F0E080818F7D8C930F900F900F90F3
:10244000CF91DF910895DF93CF93CDB7DEB72A9771
:102450000FB6F894DEBF0FBECDBF89836A83898132
:10246000282F30E03A87298789859A858130910520
:1024700009F466C029853A852230310509F4BBC0CC
:1024800089859A85009709F0DDC08A81282F30E080
:1024900038872F838F8198858130910521F12F8195
:1024A0003885223031052CF48F819885009761F0B2
:1024B000C9C02F8138852230310521F18F8198855F
:1024C0008330910571F1BEC0A5E5B0E0E5E5F0E02F
:1024D00080818E7F8C93A5E5B0E0E5E5F0E080811A
:1024E0008D7F8C93AFC0A5E5B0E0E5E5F0E080819D
:1024F00081608C93A5E5B0E0E5E5F0E080818D7F1B
:102500008C93A0C0A5E5B0E0E5E5F0E080818E7F8A
:102510008C93A5E5B0E0E5E5F0E0808182608C93E6
:1025200091C0A5E5B0E0E5E5F0E0808181608C93A5
:10253000A5E5B0E0E5E5F0E0808182608C9382C0A3
:102540008A81282F30E03E832D838D819E818130CA
:10255000910521F12D813E81223031052CF48D81B0
:102560009E81009761F06EC02D813E812230310541
:1025700021F18D819E818330910571F163C0A5E5C4
:10258000B0E0E5E5F0E080818B7F8C93A5E5B0E0DD
:10259000E5E5F0E08081877F8C9354C0A5E5B0E04D
:1025A000E5E5F0E0808184608C93A5E5B0E0E5E5A9
:1025B000F0E08081877F8C9345C0A5E5B0E0E5E53C
:1025C000F0E080818B7F8C93A5E5B0E0E5E5F0E05D
:1025D000808188608C9336C0A5E5B0E0E5E5F0E049
:1025E000808184608C93A5E5B0E0E5E5F0E0808132
:1025F00088608C9327C08A81282F30E03C832B830E
:102600008B819C818230910531F02B813C8123307C
:10261000310549F010C0A4E5B0E0E4E5F0E08081C8
:102620008F7B8C930FC0A4E5B0E0E4E5F0E08081FF
:1026300080648C9307C0A4E5B0E0E4E5F0E080811D
:102640008F7B8C932A960FB6F894DEBF0FBECDBF5A
:10265000CF91DF9108951F920F920FB60F92112420
:102660002F933F934F935F936F937F938F939F939A
:10267000AF93BF93EF93FF93DF93CF93CDB7DEB7C5
:102680008091DF009091E000009729F0E091DF0059
:10269000F091E0000995CF91DF91FF91EF91BF910B
:1026A000AF919F918F917F916F915F914F913F91EA
:1026B0002F910F900FBE0F901F9018951F920F92A1
:1026C0000FB60F9211242F933F934F935F936F9305
:1026D0007F938F939F93AF93BF93EF93FF93DF937A
:1026E000CF93CDB7DEB78091E1009091E2000097E3
:1026F00029F0E091E100F091E2000995CF91DF919E
:10270000FF91EF91BF91AF919F918F917F916F91C9
:102710005F914F913F912F910F900FBE0F901F909F
:1027200018951F920F920FB60F9211242F933F937B
:102730004F935F936F937F938F939F93AF93BF93C9
:10274000EF93FF93DF93CF93CDB7DEB78091E30094
:102750009091E400009729F0E091E300F091E4000B
:102760000995CF91DF91FF91EF91BF91AF919F912B
:102770008F917F916F915F914F913F912F910F902A
:102780000FBE0F901F901895DF93CF9300D000D00D
:102790000F92CDB7DEB789836A834B838981282F57
:1027A00030E03D832C838C819D818130910509F43B
:1027B00047C02C813D81223031052CF48C819D81D4
:1027C000009771F0CBC02C813D812230310509F496
:1027D00067C08C819D818330910509F491C0BEC092
:1027E0008B818130A1F4AAE3B0E0EAE3F0E08081DC
:1027F000482F8A81282F30E081E090E0022E02C02D
:10280000880F991F0A94E2F7842B8C93A7C08B81C1
:10281000882309F0A3C0AAE3B0E0EAE3F0E08081F6
:10282000482F8A81282F30E081E090E0022E02C0FC
:10283000880F991F0A94E2F7809584238C938EC0A9
:102840008B818130A1F4A7E3B0E0E7E3F0E0808181
:10285000482F8A81282F30E081E090E0022E02C0CC
:10286000880F991F0A94E2F7842B8C9377C08B8191
:10287000882309F073C0A7E3B0E0E7E3F0E08081CC
:10288000482F8A81282F30E081E090E0022E02C09C
:10289000880F991F0A94E2F7809584238C935EC079
:1028A0008B818130A1F4A4E3B0E0E4E3F0E0808127
:1028B000482F8A81282F30E081E090E0022E02C06C
:1028C000880F991F0A94E2F7842B8C9347C08B8161
:1028D000882309F043C0A4E3B0E0E4E3F0E08081A2
:1028E000482F8A81282F30E081E090E0022E02C03C
:1028F000880F991F0A94E2F7809584238C932EC049
:102900008B818130A1F4A1E3B0E0E1E3F0E08081CC
:10291000482F8A81282F30E081E090E0022E02C00B
:10292000880F991F0A94E2F7842B8C9317C08B8130
:102930008823A1F4A1E3B0E0E1E3F0E08081482F37
:102940008A81282F30E081E090E0022E02C0880FBB
:10295000991F0A94E2F7809584238C930F900F902F
:102960000F900F900F90CF91DF910895DF93CF9349
:1029700000D000D0CDB7DEB789836A838981282F44
:1029800030E03C832B838B819C818130910509F160
:102990002B813C81223031052CF48B819C81009766
:1029A00061F03AC02B813C8122303105F1F08B81FE
:1029B0009C818330910529F12FC08A81813029F4CF
:1029C000EAE3F0E08FEF808327C0EAE3F0E01082D3
:1029D00023C08A81813029F4E7E3F0E08FEF808320
:1029E0001BC0E7E3F0E0108217C08A81813029F430
:1029F000E4E3F0E08FEF80830FC0E4E3F0E01082C7
:102A00000BC08A81813029F4E1E3F0E08FEF80830D
:102A100003C0E1E3F0E010820F900F900F900F9051
:102A2000CF91DF910895DF93CF9300D000D00F9224
:102A3000CDB7DEB789836A834B838981282F30E045
:102A40003D832C838C819D818130910509F447C0A1
:102A50002C813D81223031052CF48C819D810097A1
:102A600071F0CBC02C813D812230310509F467C063
:102A70008C819D818330910509F491C0BEC08B810A
:102A80008130A1F4ABE3B0E0EBE3F0E08081482FCC
:102A90008A81282F30E081E090E0022E02C0880F6A
:102AA000991F0A94E2F7842B8C93A7C08B8188230B
:102AB00009F0A3C0ABE3B0E0EBE3F0E08081482F86
:102AC0008A81282F30E081E090E0022E02C0880F3A
:102AD000991F0A94E2F7809584238C938EC08B8192
:102AE0008130A1F4A8E3B0E0E8E3F0E08081482F72
:102AF0008A81282F30E081E090E0022E02C0880F0A
:102B0000991F0A94E2F7842B8C9377C08B818823DA
:102B100009F073C0A8E3B0E0E8E3F0E08081482F5B
:102B20008A81282F30E081E090E0022E02C0880FD9
:102B3000991F0A94E2F7809584238C935EC08B8161
:102B40008130A1F4A5E3B0E0E5E3F0E08081482F17
:102B50008A81282F30E081E090E0022E02C0880FA9
:102B6000991F0A94E2F7842B8C9347C08B818823AA
:102B700009F043C0A5E3B0E0E5E3F0E08081482F31
:102B80008A81282F30E081E090E0022E02C0880F79
:102B9000991F0A94E2F7809584238C932EC08B8131
:102BA0008130A1F4A2E3B0E0E2E3F0E08081482FBD
:102BB0008A81282F30E081E090E0022E02C0880F49
:102BC000991F0A94E2F7842B8C9317C08B8188237A
:102BD000A1F4A2E3B0E0E2E3F0E08081482F8A8133
:102BE000282F30E081E090E0022E02C0880F991F6C
:102BF0000A94E2F7809584238C930F900F900F90A6
:102C00000F900F90CF91DF910895DF93CF9300D075
:102C100000D0CDB7DEB789836A838981282F30E061
:102C20003C832B838B819C8181309105D1F02B815A
:102C30003C81223031052CF48B819C81009761F01E
:102C40001EC02B813C812230310581F08B819C811B
:102C50008330910581F013C0EBE3F0E08A8180833B
:102C60000EC0EBE3F0E08A81808309C0EBE3F0E083
:102C70008A81808304C0EBE3F0E08A8180830F9037
:102C80000F900F900F90CF91DF910895DF93CF9326
:102C900000D000D000D0CDB7DEB789836A835C83D3
:102CA0004B838981282F30E03E832D834D815E81C7
:102CB00041305105C1F18D819E818230910534F4FE
:102CC0002D813E812115310571F08CC04D815E81D1
:102CD0004230510509F447C08D819E8183309105B2
:102CE00009F461C07FC0E9E3F0E08081482F50E043
:102CF0008A81282F30E081E090E002C0880F991F80
:102D00002A95E2F79A01282339238A81882F90E0B7
:102D1000A90102C0559547958A95E2F7CA01EB8152
:102D2000FC8180835FC0E6E3F0E08081482F50E0C3
:102D30008A81282F30E081E090E002C0880F991F3F
:102D40002A95E2F79A01282339238A81882F90E077
:102D5000A90102C0559547958A95E2F7CA01EB8112
:102D6000FC8180833FC0E3E3F0E08081482F50E0A6
:102D70008A81282F30E081E090E002C0880F991FFF
:102D80002A95E2F79A01282339238A81882F90E037
:102D9000A90102C0559547958A95E2F7CA01EB81D2
:102DA000FC8180831FC0E0E3F0E08081482F50E089
:102DB0008A81282F30E081E090E002C0880F991FBF
:102DC0002A95E2F79A01282339238A81882F90E0F7
:102DD000A90102C0559547958A95E2F7CA01EB8192
:102DE000FC81808326960FB6F894DEBF0FBECDBF60
:102DF000CF91DF910895DF93CF9300D000D0CDB76E
:102E0000DEB789836A838981282F30E03C832B8356
:102E10008B819C818130910549F12B813C8122304D
:102E200031052CF48B819C81009761F05AC02B8175
:102E30003C812230310571F18B819C818330910579
:102E4000E9F14FC0ABE3B0E0EBE3F0E08081482F65
:102E50008A81282F30E081E090E0022E02C0880FA6
:102E6000991F0A94E2F784278C933BC0A8E3B0E053
:102E7000E8E3F0E08081482F8A81282F30E081E06C
:102E800090E0022E02C0880F991F0A94E2F784276F
:102E90008C9327C0A5E3B0E0E5E3F0E08081482F04
:102EA0008A81282F30E081E090E0022E02C0880F56
:102EB000991F0A94E2F784278C9313C0A2E3B0E031
:102EC000E2E3F0E08081482F8A81282F30E081E022
:102ED00090E0022E02C0880F991F0A94E2F784271F
:102EE0008C930F900F900F900F90CF91DF910895DA
:102EF000DF93CF9300D00F92CDB7DEB7898389815E
:102F0000282F30E03B832A838A819B818130910581
:102F1000E9F02A813B81223031052CF48A819B81A2
:102F2000009761F02AC02A813B8122303105B1F03F
:102F30008A819B8183309105C9F01FC0ABE3B0E06B
:102F4000EBE3F0E0808180958C9317C0A8E3B0E0BC
:102F5000E8E3F0E0808180958C930FC0A5E3B0E0BA
:102F6000E5E3F0E0808180958C9307C0A2E3B0E0B8
:102F7000E2E3F0E0808180958C930F900F900F90AA
:102F8000CF91DF910895DF93CF930F92CDB7DEB746
:102F90001982A7E2B0E0E7E2F0E0808180648C93E0
:102FA000A7E2B0E0E7E2F0E080818F7D8C93A6E2BB
:102FB000B0E0E6E2F0E0808180688C9389810F9038
:102FC000CF91DF910895DF93CF930F92CDB7DEB706
:102FD0001982A6E2B0E0E6E2F0E0808180648C93A2
:102FE00089810F90CF91DF910895DF93CF930F9256
:102FF000CDB7DEB71982E6E2F0E0808182958F706E
:10300000882F90E0817090700097A9F3A6E2B0E05D
:10301000E6E2F0E0808180618C9389810F90CF910E
:10302000DF910895DF93CF9300D00F92CDB7DEB735
:103030009B838A831982E4E2F0E08081882F90E00C
:10304000EA81FB8191838083EA81FB812081318148
:10305000E5E2F0E08081882F90E0982F8827822B8E
:10306000932BEA81FB819183808389810F900F905C
:103070000F90CF91DF910895DF93CF9300D00F92FF
:10308000CDB7DEB79B838A831982E4E2F0E08081CA
:10309000882F90E0EA81FB8191838083EA81FB8124
:1030A00020813181E5E2F0E08081882F90E0982F47
:1030B0008827822B932BEA81FB81918380838981EE
:1030C0000F900F900F90CF91DF910895DF93CF93E2
:1030D00000D000D00F92CDB7DEB79B838A837D836B
:1030E0006C8319828A819B81009761F08A819B8120
:1030F0009093E6008093E5008C819D819093E80099
:103100008093E70089810F900F900F900F900F90A0
:10311000CF91DF910895DF93CF9300D0CDB7DEB785
:103120008A831982A7E2B0E0E7E2F0E08081807E46
:103130008C93A7E2B0E0E7E2F0E090818A81892BEE
:103140008C9389810F900F90CF91DF910895DF9339
:10315000CF9300D000D0CDB7DEB78A831982A6E224
:10316000B0E0E6E2F0E080818F7D8C938A81282FA9
:1031700030E03C832B838B819C818531910531F03C
:103180002B813C8122323105B9F02BC0A0E5B0E0A3
:10319000E0E5F0E080818F7D8C93A0E5B0E0E0E594
:1031A000F0E080818F7B8C93A0E5B0E0E0E5F0E07B
:1031B00080818F778C9315C0A0E5B0E0E0E5F0E06A
:1031C00080818F7D8C93A0E5B0E0E0E5F0E0808128
:1031D00080648C93A0E5B0E0E0E5F0E080818F773B
:1031E0008C93A6E2B0E0E6E2F0E0808180628C930E
:1031F00089810F900F900F900F90CF91DF910895DC
:10320000DF93CF930F92CDB7DEB71982A6E2B0E07D
:10321000E6E2F0E080818F7D8C9389810F90CF91E1
:10322000DF910895DF93CF930F92CDB7DEB7198268
:10323000A6E2B0E0E6E2F0E0808188608C938981CC
:103240000F90CF91DF9108951F920F920FB60F92BA
:1032500011242F933F934F935F936F937F938F939B
:103260009F93AF93BF93EF93FF93DF93CF93CDB72C
:10327000DEB78091E5009091E600009749F0E0917B
:10328000E500F091E6008091E7009091E800099553
:10329000CF91DF91FF91EF91BF91AF919F918F916E
:1032A0007F916F915F914F913F912F910F900FBE42
:1032B0000F901F901895DF93CF93CDB7DEB7809115
:1032C000EC00882389F41092E900E6E4F0E08081C4
:1032D00091819093EE008093ED0081E08093EC006B
:1032E00080E00E94900916C08091EC00813091F43A
:1032F000E6E4F0E0808191819093F0008093EF000C
:1033000082E08093EC0081E00E9490090E948A0A8A
:103310000E94DE0ACF91DF910895DF93CF93CDB75E
:10332000DEB78091E9008F5F8093E900CF91DF9154
:103330000895DF93CF93CDB7DEB78BE599E10E9477
:10334000940B8DE899E10E94520BCF91DF91089583
:10335000DF93CF93CDB7DEB76A970FB6F894DEBF91
:103360000FBECDBF898F6A8F8091EC00882309F052
:10337000DDC08091E9008093EA00898D6A8D41E08B
:103380000E94C41383E066E041E00E94C413898D6B
:103390006A8D41E00E94131580E090E0A0EAB1E45C
:1033A0008D8B9E8BAF8BB88F6D897E898F89988D21
:1033B0002BEA3AEA4AE250E40E941F02DC01CB0108
:1033C000898B9A8BAB8BBC8B69897A898B899C8919
:1033D00020E030E040E85FE30E94250488231CF4ED
:1033E00081E0888B91C069897A898B899C8920E0EA
:1033F00030E04FE753E40E94C50318160CF07BC081
:103400006D897E898F89988D20E030E04AE754E409
:103410000E941903DC01CB018C879D87AE87BF8793
:103420006C857D858E859F8520E030E04AEF54E4F1
:103430000E941F02DC01CB0188879987AA87BB877E
:10344000688579858A859B8520E030E040E85FE3E8
:103450000E94250488232CF481E090E09F838E83D2
:103460003FC0688579858A859B8520E03FEF4FE7DF
:1034700057E40E94C50318164CF56C857D858E8532
:103480009F8520E030E040E251E40E941F02DC0111
:10349000CB01BC01CD010E944900DC01CB019F831F
:1034A0008E830FC088EC90E09D838C838C819D81FE
:1034B0000197F1F79D838C838E819F8101979F8374
:1034C0008E838E819F81009769F724C068857985F6
:1034D0008A859B850E944900DC01CB019F838E83F6
:1034E0008E819F819B838A838A819B810197F1F7DB
:1034F0009B838A830FC069897A898B899C890E9402
:103500004900DC01CB01888B8889898389818A9570
:10351000F1F78983898D6A8D40E00E94131581E05F
:103520000E9490090E947C0A0E94D00A6A960FB6F7
:10353000F894DEBF0FBECDBFCF91DF9108950F93FA
:103540001F93DF93CF9300D000D00F92CDB7DEB79B
:103550009C838B831A8219828091EC00823009F05F
:103560003FC08091E9008093EB002091EF00309103
:10357000F0008091ED009091EE008901081B190B7D
:103580008091EB00282F30E08091EA00882F90E0B6
:10359000A901481B590BCA01AA2797FDA095BA2F6C
:1035A0002FEF3FEF40E050E0BC01CD010E945D2FC6
:1035B000DC01CB01800F911F9A83898389819A81D5
:1035C0002AE330E0B9010E94882FCB01EB81FC8116
:1035D00080830E947C0A1092EC0051E05D8301C060
:1035E0001D828D810F900F900F900F900F90CF91B3
:1035F000DF911F910F9108950F931F93DF93CF9346
:10360000CDB7DEB76E970FB6F894DEBF0FBECDBF55
:103610009C8F8B8F6D8F4E8F1A8E198E8D8D6E8D28
:1036200041E00E94C41383E066E041E00E94C413BD
:103630008D8D6E8D41E00E94131580E090E0A0EA30
:10364000B1E48D8B9E8BAF8BB88F6D897E898F890E
:10365000988D2BEA3AEA4AE250E40E941F02DC010C
:10366000CB01898B9A8BAB8BBC8B69897A898B89CF
:103670009C8920E030E040E85FE30E942504882335
:103680001CF481E0888B91C069897A898B899C8937
:1036900020E030E04FE753E40E94C50318160CF019
:1036A0007BC06D897E898F89988D20E030E04AE764
:1036B00054E40E941903DC01CB018C879D87AE87FF
:1036C000BF876C857D858E859F8520E030E04AEF41
:1036D00054E40E941F02DC01CB0188879987AA87E6
:1036E000BB87688579858A859B8520E030E040E846
:1036F0005FE30E94250488232CF481E090E09F83FF
:103700008E833FC0688579858A859B8520E03FEF61
:103710004FE757E40E94C50318164CF56C857D856C
:103720008E859F8520E030E040E251E40E941F0238
:10373000DC01CB01BC01CD010E944900DC01CB01C1
:103740009F838E830FC088EC90E09D838C838C8157
:103750009D810197F1F79D838C838E819F810197D5
:103760009F838E838E819F81009769F724C068852F
:1037700079858A859B850E944900DC01CB019F8366
:103780008E838E819F819B838A838A819B8101970F
:10379000F1F79B838A830FC069897A898B899C8919
:1037A0000E944900DC01CB01888B8889898389814B
:1037B0008A95F1F789838D8D6E8D40E00E941315F7
:1037C00081E00E9490098091E9008093EA001092C4
:1037D000EC000E947C0A0E94D00A78948091EC0050
:1037E0008230E0F38091E9008093EB002091EF00BC
:1037F0003091F0008091ED009091EE008901081B5E
:10380000190B8091EB00282F30E08091EA00882F7F
:1038100090E0A901481B590BCA01AA2797FDA09562
:10382000BA2F2FEF3FEF40E050E0BC01CD010E94E6
:103830005D2FDC01CB01800F911F9A8F898F898DBD
:103840009A8D2AE330E0B9010E94882FCB01EB8DDD
:10385000FC8D80830E94DE0A6E960FB6F894DEBF60
:103860000FBECDBFCF91DF911F910F910895DF93D0
:10387000CF93CDB7DEB7E8970FB6F894DEBF0FBE93
:10388000CDBF82E060E041E00E94C41382E061E0CD
:1038900041E00E94C41382E062E041E00E94C41350
:1038A00082E063E041E00E94C41382E060E041E016
:1038B0000E94131580E090E0A8ECB2E48DAB9EABC3
:1038C000AFABB8AF6DA97EA98FA998AD20E030E06D
:1038D0004AEF54E40E941F02DC01CB0189AB9AAB92
:1038E000ABABBCAB69A97AA98BA99CA920E030E05D
:1038F00040E85FE30E94250488232CF481E090E0F7
:1039000098AB8FA73FC069A97AA98BA99CA920E091
:103910003FEF4FE757E40E94C50318164CF56DA919
:103920007EA98FA998AD20E030E040E251E40E94EA
:103930001F02DC01CB01BC01CD010E944900DC016A
:10394000CB0198AB8FA70FC088EC90E09EA78DA706
:103950008DA59EA50197F1F79EA78DA78FA598A984
:10396000019798AB8FA78FA598A9009769F714C006
:1039700069A97AA98BA99CA90E944900DC01CB0105
:1039800098AB8FA78FA598A99CA78BA78BA59CA563
:103990000197F1F79CA78BA782E060E040E00E94CE
:1039A000131582E061E041E00E94131580E090E091
:1039B000A8ECB2E48FA398A7A9A7BAA76FA178A58E
:1039C00089A59AA520E030E04AEF54E40E941F0246
:1039D000DC01CB018BA39CA3ADA3BEA36BA17CA1F7
:1039E0008DA19EA120E030E040E85FE30E94250425
:1039F00088232CF481E090E09AA389A33FC06BA1B7
:103A00007CA18DA19EA120E03FEF4FE757E40E94EB
:103A1000C50318164CF56FA178A589A59AA520E0D5
:103A200030E040E251E40E941F02DC01CB01BC0106
:103A3000CD010E944900DC01CB019AA389A30FC0EC
:103A400088EC90E098A38F8F8F8D98A10197F1F764
:103A500098A38F8F89A19AA101979AA389A389A17D
:103A60009AA1009769F714C06BA17CA18DA19EA1BA
:103A70000E944900DC01CB019AA389A389A19AA1E4
:103A80009E8F8D8F8D8D9E8D0197F1F79E8F8D8FDF
:103A900082E061E040E00E94131582E062E041E0D4
:103AA0000E94131580E090E0A8ECB2E4898F9A8F11
:103AB000AB8FBC8F698D7A8D8B8D9C8D20E030E033
:103AC0004AEF54E40E941F02DC01CB018D8B9E8BD8
:103AD000AF8BB88F6D897E898F89988D20E030E01B
:103AE00040E85FE30E94250488232CF481E090E005
:103AF0009C8B8B8B3FC06D897E898F89988D20E050
:103B00003FEF4FE757E40E94C50318164CF5698D47
:103B10007A8D8B8D9C8D20E030E040E251E40E9454
:103B20001F02DC01CB01BC01CD010E944900DC0178
:103B3000CB019C8B8B8B0FC088EC90E09A8B898B90
:103B400089899A890197F1F79A8B898B8B899C894E
:103B500001979C8B8B8B8B899C89009769F714C08C
:103B60006D897E898F89988D0E944900DC01CB0187
:103B70009C8B8B8B8B899C89988B8F878F85988961
:103B80000197F1F7988B8F8782E062E040E00E9416
:103B9000131582E063E041E00E94131580E090E09D
:103BA000A8ECB2E48B879C87AD87BE876B857C854C
:103BB0008D859E8520E030E04AEF54E40E941F028C
:103BC000DC01CB018F839887A987BA876F817885BD
:103BD00089859A8520E030E040E85FE30E94250473
:103BE00088232CF481E090E09E838D833FC06F8119
:103BF000788589859A8520E03FEF4FE757E40E945A
:103C0000C50318164CF56B857C858D859E8520E057
:103C100030E040E251E40E941F02DC01CB01BC0114
:103C2000CD010E944900DC01CB019E838D830FC032
:103C300088EC90E09C838B838B819C810197F1F7CA
:103C40009C838B838D819E8101979E838D838D8143
:103C50009E81009769F714C06F81788589859A8560
:103C60000E944900DC01CB019E838D838D819E8162
:103C70009A83898389819A810197F1F79A8389834D
:103C800082E063E040E00E941315E8960FB6F894D6
:103C9000DEBF0FBECDBFCF91DF910895DF93CF93ED
:103CA000CDB7DEB7EA970FB6F894DEBF0FBECDBF33
:103CB0001AAE19AE1DC282E060E040E00E9413150A
:103CC00082E061E041E00E94131582E062E041E0A1
:103CD0000E94131582E063E041E00E94131580E02A
:103CE00090E0A0E0B0E48DAB9EABAFABB8AF6DA9F8
:103CF0007EA98FA998AD20E030E04AEF54E40E94FD
:103D00001F02DC01CB0189AB9AABABABBCAB69A9A1
:103D10007AA98BA99CA920E030E040E85FE30E94EB
:103D2000250488232CF481E090E098AB8FA73FC056
:103D300069A97AA98BA99CA920E03FEF4FE757E436
:103D40000E94C50318164CF56DA97EA98FA998ADE0
:103D500020E030E040E251E40E941F02DC01CB0190
:103D6000BC01CD010E944900DC01CB0198AB8FA7BB
:103D70000FC088EC90E09EA78DA78DA59EA501970A
:103D8000F1F79EA78DA78FA598A9019798AB8FA74C
:103D90008FA598A9009769F714C069A97AA98BA97A
:103DA0009CA90E944900DC01CB0198AB8FA78FA58D
:103DB00098A99CA78BA78BA59CA50197F1F79CA719
:103DC0008BA782E060E041E00E94131582E061E091
:103DD00040E00E94131582E062E041E00E9413156A
:103DE00082E063E041E00E94131580E090E0A0E0F3
:103DF000B0E48FA398A7A9A7BAA76FA178A589A5B2
:103E00009AA520E030E04AEF54E40E941F02DC0152
:103E1000CB018BA39CA3ADA3BEA36BA17CA18DA161
:103E20009EA120E030E040E85FE30E942504882363
:103E30002CF481E090E09AA389A33FC06BA17CA100
:103E40008DA19EA120E03FEF4FE757E40E94C503FC
:103E500018164CF56FA178A589A59AA520E030E049
:103E600040E251E40E941F02DC01CB01BC01CD0104
:103E70000E944900DC01CB019AA389A30FC088EC02
:103E800090E098A38F8F8F8D98A10197F1F798A359
:103E90008F8F89A19AA101979AA389A389A19AA139
:103EA000009769F714C06BA17CA18DA19EA10E940F
:103EB0004900DC01CB019AA389A389A19AA19E8F15
:103EC0008D8F8D8D9E8D0197F1F79E8F8D8F82E066
:103ED00060E041E00E94131582E061E041E00E9451
:103EE000131582E062E040E00E94131582E063E077
:103EF00041E00E94131580E090E0A0E0B0E4898FDB
:103F00009A8FAB8FBC8F698D7A8D8B8D9C8D20E0C5
:103F100030E04AEF54E40E941F02DC01CB018D8B9C
:103F20009E8BAF8BB88F6D897E898F89988D20E0AD
:103F300030E040E85FE30E94250488232CF481E010
:103F400090E09C8B8B8B3FC06D897E898F89988D8B
:103F500020E03FEF4FE757E40E94C50318164CF5E9
:103F6000698D7A8D8B8D9C8D20E030E040E251E4AC
:103F70000E941F02DC01CB01BC01CD010E9449005F
:103F8000DC01CB019C8B8B8B0FC088EC90E09A8B73
:103F9000898B89899A890197F1F79A8B898B8B890B
:103FA0009C8901979C8B8B8B8B899C89009769F7E7
:103FB00014C06D897E898F89988D0E944900DC012B
:103FC000CB019C8B8B8B8B899C89988B8F878F8562
:103FD00098890197F1F7988B8F8782E060E041E044
:103FE0000E94131582E061E041E00E94131582E017
:103FF00062E041E00E94131582E063E040E00E942D
:10400000131580E090E0A0E0B0E48B879C87AD873B
:10401000BE876B857C858D859E8520E030E04AEFEC
:1040200054E40E941F02DC01CB018F839887A9878B
:10403000BA876F81788589859A8520E030E040E8ED
:104040005FE30E94250488232CF481E090E09E83A6
:104050008D833FC06F81788589859A8520E03FEF09
:104060004FE757E40E94C50318164CF56B857C8515
:104070008D859E8520E030E040E251E40E941F02E1
:10408000DC01CB01BC01CD010E944900DC01CB0168
:104090009E838D830FC088EC90E09C838B838B8103
:1040A0009C810197F1F79C838B838D819E81019781
:1040B0009E838D838D819E81009769F714C06F81E7
:1040C000788589859A850E944900DC01CB019E8311
:1040D0008D838D819E819A83898389819A810197BD
:1040E000F1F79A83898389AD9AAD01969AAF89AF2A
:1040F00089AD9AAD803391050CF4DDCDEA960FB60B
:10410000F894DEBF0FBECDBFCF91DF910895DF934E
:10411000CF93CDB7DEB7EA970FB6F894DEBF0FBEE8
:10412000CDBF1AAE19AE1DC282E060E041E00E9430
:10413000131582E061E041E00E94131582E062E025
:1041400041E00E94131582E063E040E00E941315F5
:1041500080E090E0A0E0B0E48DAB9EABAFABB8AF39
:104160006DA97EA98FA998AD20E030E04AEF54E414
:104170000E941F02DC01CB0189AB9AABABABBCAB9D
:1041800069A97AA98BA99CA920E030E040E85FE307
:104190000E94250488232CF481E090E098AB8FA73F
:1041A0003FC069A97AA98BA99CA920E03FEF4FE7FE
:1041B00057E40E94C50318164CF56DA97EA98FA976
:1041C00098AD20E030E040E251E40E941F02DC01A3
:1041D000CB01BC01CD010E944900DC01CB0198ABB1
:1041E0008FA70FC088EC90E09EA78DA78DA59EA5F8
:1041F0000197F1F79EA78DA78FA598A9019798AB76
:104200008FA78FA598A9009769F714C069A97AA903
:104210008BA99CA90E944900DC01CB0198AB8FA718
:104220008FA598A99CA78BA78BA59CA50197F1F7B3
:104230009CA78BA782E060E041E00E94131582E01A
:1042400061E041E00E94131582E062E040E00E94DC
:10425000131582E063E041E00E94131580E090E0D6
:10426000A0E0B0E48FA398A7A9A7BAA76FA178A5EB
:1042700089A59AA520E030E04AEF54E40E941F028D
:10428000DC01CB018BA39CA3ADA3BEA36BA17CA13E
:104290008DA19EA120E030E040E85FE30E9425046C
:1042A00088232CF481E090E09AA389A33FC06BA1FE
:1042B0007CA18DA19EA120E03FEF4FE757E40E9433
:1042C000C50318164CF56FA178A589A59AA520E01D
:1042D00030E040E251E40E941F02DC01CB01BC014E
:1042E000CD010E944900DC01CB019AA389A30FC034
:1042F00088EC90E098A38F8F8F8D98A10197F1F7AC
:1043000098A38F8F89A19AA101979AA389A389A1C4
:104310009AA1009769F714C06BA17CA18DA19EA101
:104320000E944900DC01CB019AA389A389A19AA12B
:104330009E8F8D8F8D8D9E8D0197F1F79E8F8D8F26
:1043400082E060E041E00E94131582E061E040E01D
:104350000E94131582E062E041E00E94131582E0A2
:1043600063E041E00E94131580E090E0A0E0B0E43B
:10437000898F9A8FAB8FBC8F698D7A8D8B8D9C8D39
:1043800020E030E04AEF54E40E941F02DC01CB0140
:104390008D8B9E8BAF8BB88F6D897E898F89988D21
:1043A00020E030E040E85FE30E94250488232CF4FD
:1043B00081E090E09C8B8B8B3FC06D897E898F89DB
:1043C000988D20E03FEF4FE757E40E94C503181691
:1043D0004CF5698D7A8D8B8D9C8D20E030E040E22C
:1043E00051E40E941F02DC01CB01BC01CD010E94FF
:1043F0004900DC01CB019C8B8B8B0FC088EC90E0DB
:104400009A8B898B89899A890197F1F79A8B898B85
:104410008B899C8901979C8B8B8B8B899C890097BE
:1044200069F714C06D897E898F89988D0E94490033
:10443000DC01CB019C8B8B8B8B899C89988B8F8724
:104440008F8598890197F1F7988B8F8782E060E0DC
:1044500040E00E94131582E061E041E00E941315E4
:1044600082E062E041E00E94131582E063E041E0F7
:104470000E94131580E090E0A0E0B0E48B879C8759
:10448000AD87BE876B857C858D859E8520E030E07D
:104490004AEF54E40E941F02DC01CB018F8398870E
:1044A000A987BA876F81788589859A8520E030E071
:1044B00040E85FE30E94250488232CF481E090E02B
:1044C0009E838D833FC06F81788589859A8520E0A2
:1044D0003FEF4FE757E40E94C50318164CF56B8574
:1044E0007C858D859E8520E030E040E251E40E948D
:1044F0001F02DC01CB01BC01CD010E944900DC019F
:10450000CB019E838D830FC088EC90E09C838B83CE
:104510008B819C810197F1F79C838B838D819E8198
:1045200001979E838D838D819E81009769F714C0CA
:104530006F81788589859A850E944900DC01CB01CD
:104540009E838D838D819E819A83898389819A81BF
:104550000197F1F79A83898389AD9AAD01969AAF55
:1045600089AF89AD9AAD803391050CF4DDCDEA9623
:104570000FB6F894DEBF0FBECDBFCF91DF91089587
:10458000DF93CF93CDB7DEB782E060E041E00E94D9
:10459000131582E060E041E00E94131582E060E0C4
:1045A00041E00E94131582E060E041E00E94131593
:1045B000CF91DF910895DF93CF93CDB7DEB781E040
:1045C00060E040E00E94C413CF91DF910895DF9333
:1045D000CF9300D000D000D0CDB7DEB79B838A83C5
:1045E0007D836C83198281E060E09E012F5F3F4FE5
:1045F000A9010E9446168981813039F4EA81FB8144
:104600000995E6E3F0E0808103C0EC81FD81099526
:1046100026960FB6F894DEBF0FBECDBFCF91DF91C7
:104620000895DF93CF93CDB7DEB781E00E9479265E
:10463000CF91DF910895DF93CF93CDB7DEB72E975B
:104640000FB6F894DEBF0FBECDBF80E063E041E05F
:104650000E94131580E090E0A8E4B2E48B879C8769
:10466000AD87BE876B857C858D859E8520E030E09B
:104670004AEF54E40E941F02DC01CB018F8398872C
:10468000A987BA876F81788589859A8520E030E08F
:1046900040E85FE30E94250488232CF481E090E049
:1046A0009E838D833FC06F81788589859A8520E0C0
:1046B0003FEF4FE757E40E94C50318164CF56B8592
:1046C0007C858D859E8520E030E040E251E40E94AB
:1046D0001F02DC01CB01BC01CD010E944900DC01BD
:1046E000CB019E838D830FC088EC90E09C838B83ED
:1046F0008B819C810197F1F79C838B838D819E81B7
:1047000001979E838D838D819E81009769F714C0E8
:104710006F81788589859A850E944900DC01CB01EB
:104720009E838D838D819E819A83898389819A81DD
:104730000197F1F79A83898380E063E040E00E946B
:1047400013152E960FB6F894DEBF0FBECDBFCF91D6
:10475000DF9108950F931F93DF93CF93CDB7DEB70B
:10476000C654D0400FB6F894DEBF0FBECDBFFE01D9
:10477000ED5BFF4F80E090E0A0EAB1E4808391839D
:10478000A283B3838E01015C1F4FFE01ED5BFF4FDF
:10479000608171818281938120E030E04AEF54E4AE
:1047A0000E941F02DC01CB01F80180839183A28368
:1047B000B383FE01FF96608171818281938120E045
:1047C00030E040E85FE30E94250488232CF481E078
:1047D00090E09EAF8DAF46C0FE01FF966081718173
:1047E0008281938120E03FEF4FE757E40E94C503A9
:1047F000181664F5FE01ED5BFF4F608171818281C7
:10480000938120E030E040E251E40E941F02DC018D
:10481000CB01BC01CD010E944900DC01CB019EAF60
:104820008DAF0FC088EC90E09CAF8BAF8BAD9CAD93
:104830000197F1F79CAF8BAF8DAD9EAD01979EAF09
:104840008DAF8DAD9EAD009769F716C0FE01FF9646
:1048500060817181828193810E944900DC01CB01DA
:104860009EAF8DAF8DAD9EAD9AAF89AF89AD9AAD3C
:104870000197F1F79AAF89AFAAE3B0E0EAE3F0E07D
:10488000808182608C93AAE3B0E0EAE3F0E080816B
:1048900084608C93AAE3B0E0EAE3F0E08081886072
:1048A0008C93ABE3B0E0EBE3F0E080818D7F8C9301
:1048B000ABE3B0E0EBE3F0E080818B7F8C93ABE384
:1048C000B0E0EBE3F0E08081877F8C93AAE3B0E077
:1048D000EAE3F0E0808180618C93AAE3B0E0EAE350
:1048E000F0E0808180628C93AAE3B0E0EAE3F0E03C
:1048F000808180648C93AAE3B0E0EAE3F0E08081F9
:1049000080688C9380E090E0A0E7B1E48DAB9EAB33
:10491000AFABB8AF6DA97EA98FA998AD20E030E00C
:104920004AEF54E40E941F02DC01CB0189AB9AAB31
:10493000ABABBCAB69A97AA98BA99CA920E030E0FC
:1049400040E85FE30E94250488232CF481E090E096
:1049500098AB8FA73FC069A97AA98BA99CA920E031
:104960003FEF4FE757E40E94C50318164CF56DA9B9
:104970007EA98FA998AD20E030E040E251E40E948A
:104980001F02DC01CB01BC01CD010E944900DC010A
:10499000CB0198AB8FA70FC088EC90E09EA78DA7A6
:1049A0008DA59EA50197F1F79EA78DA78FA598A924
:1049B000019798AB8FA78FA598A9009769F714C0A6
:1049C00069A97AA98BA99CA90E944900DC01CB01A5
:1049D00098AB8FA78FA598A99CA78BA78BA59CA503
:1049E0000197F1F79CA78BA70E94112380E20E94F8
:1049F000792680E20E94792680E80E94792680E06C
:104A000090E0A0E8BFE38FA398A7A9A7BAA76FA1DA
:104A100078A589A59AA520E030E04AEF54E40E94E9
:104A20001F02DC01CB018BA39CA3ADA3BEA36BA192
:104A30007CA18DA19EA120E030E040E85FE30E94D0
:104A4000250488232CF481E090E09AA389A33FC039
:104A50006BA17CA18DA19EA120E03FEF4FE757E421
:104A60000E94C50318164CF56FA178A589A59AA5D3
:104A700020E030E040E251E40E941F02DC01CB0163
:104A8000BC01CD010E944900DC01CB019AA389A39E
:104A90000FC088EC90E098A38F8F8F8D98A101971D
:104AA000F1F798A38F8F89A19AA101979AA389A35F
:104AB00089A19AA1009769F714C06BA17CA18DA16F
:104AC0009EA10E944900DC01CB019AA389A389A180
:104AD0009AA19E8F8D8F8D8D9E8D0197F1F79E8F60
:104AE0008D8F80E00E94792680EF0E94792680E0F9
:104AF00090E0A0E8BFE3898F9A8FAB8FBC8F698D60
:104B00007A8D8B8D9C8D20E030E04AEF54E40E943A
:104B10001F02DC01CB018D8B9E8BAF8BB88F6D8913
:104B20007E898F89988D20E030E040E85FE30E9425
:104B3000250488232CF481E090E09C8B8B8B3FC074
:104B40006D897E898F89988D20E03FEF4FE757E48C
:104B50000E94C50318164CF5698D7A8D8B8D9C8D3E
:104B600020E030E040E251E40E941F02DC01CB0172
:104B7000BC01CD010E944900DC01CB019C8B8B8BD9
:104B80000FC088EC90E09A8B898B89899A8901976C
:104B9000F1F79A8B898B8B899C8901979C8B8B8BE6
:104BA0008B899C89009769F714C06D897E898F89EC
:104BB000988D0E944900DC01CB019C8B8B8B8B89EB
:104BC0009C89988B8F878F8598890197F1F7988BAF
:104BD0008F8780E00E94792680E10E94792680E01C
:104BE00090E0A0E0B0E48B879C87AD87BE876B85A3
:104BF0007C858D859E8520E030E04AEF54E40E945C
:104C00001F02DC01CB018F839887A987BA876F8148
:104C1000788589859A8520E030E040E85FE30E944E
:104C2000250488232CF481E090E09E838D833FC08F
:104C30006F81788589859A8520E03FEF4FE757E4BB
:104C40000E94C50318164CF56B857C858D859E8565
:104C500020E030E040E251E40E941F02DC01CB0181
:104C6000BC01CD010E944900DC01CB019E838D83F4
:104C70000FC088EC90E09C838B838B819C81019793
:104C8000F1F79C838B838D819E8101979E838D8319
:104C90008D819E81009769F714C06F817885898521
:104CA0009A850E944900DC01CB019E838D838D8112
:104CB0009E819A83898389819A810197F1F79A83EA
:104CC000898381E08093F10086E00E94792680E864
:104CD0000E9479268FE00E947926CA5BDF4F0FB6CB
:104CE000F894DEBF0FBECDBFCF91DF911F910F9122
:104CF0000895DF93CF93CDB7DEB76D970FB6F894D5
:104D0000DEBF0FBECDBF8D8F80E061E040E00E942E
:104D1000131580E062E040E00E941315ABE3B0E0C1
:104D2000EBE3F0E08081982F9F708D8D807F892B41
:104D30008C930E941B2380E090E0A0E8BFE3898F62
:104D40009A8FAB8FBC8F698D7A8D8B8D9C8D20E077
:104D500030E04AEF54E40E941F02DC01CB018D8B4E
:104D60009E8BAF8BB88F6D897E898F89988D20E05F
:104D700030E040E85FE30E94250488232CF481E0C2
:104D800090E09C8B8B8B3FC06D897E898F89988D3D
:104D900020E03FEF4FE757E40E94C50318164CF59B
:104DA000698D7A8D8B8D9C8D20E030E040E251E45E
:104DB0000E941F02DC01CB01BC01CD010E94490011
:104DC000DC01CB019C8B8B8B0FC088EC90E09A8B25
:104DD000898B89899A890197F1F79A8B898B8B89BD
:104DE0009C8901979C8B8B8B8B899C89009769F799
:104DF00014C06D897E898F89988D0E944900DC01DD
:104E0000CB019C8B8B8B8B899C89988B8F878F8513
:104E100098890197F1F7988B8F878091F10088230B
:104E2000A9F0ABE3B0E0EBE3F0E08081282F30E0C5
:104E30008D8D882F90E0822B932B82959295907F79
:104E40009827807F98278C930E941B2380E090E016
:104E5000A0E0B0E48B879C87AD87BE876B857C859F
:104E60008D859E8520E030E04AEF54E40E941F02C9
:104E7000DC01CB018F839887A987BA876F817885FA
:104E800089859A8520E030E040E85FE30E942504B0
:104E900088232CF481E090E09E838D833FC06F8156
:104EA000788589859A8520E03FEF4FE757E40E9497
:104EB000C50318164CF56B857C858D859E8520E095
:104EC00030E040E251E40E941F02DC01CB01BC0152
:104ED000CD010E944900DC01CB019E838D830FC070
:104EE00088EC90E09C838B838B819C810197F1F708
:104EF0009C838B838D819E8101979E838D838D8181
:104F00009E81009769F714C06F81788589859A859D
:104F10000E944900DC01CB019E838D838D819E819F
:104F20009A83898389819A810197F1F79A8389838A
:104F30006D960FB6F894DEBF0FBECDBFCF91DF9157
:104F40000895DF93CF93CDB7DEB72F970FB6F894C0
:104F5000DEBF0FBECDBF8F8780E061E041E00E94E1
:104F6000131580E062E040E00E941315ABE3B0E06F
:104F7000EBE3F0E08081982F9F708F85807F892BF5
:104F80008C930E941B2380E090E0A0E8BFE38B8716
:104F90009C87AD87BE876B857C858D859E8520E04F
:104FA00030E04AEF54E40E941F02DC01CB018F8302
:104FB0009887A987BA876F81788589859A8520E047
:104FC00030E040E85FE30E94250488232CF481E070
:104FD00090E09E838D833FC06F81788589859A8517
:104FE00020E03FEF4FE757E40E94C50318164CF549
:104FF0006B857C858D859E8520E030E040E251E424
:105000000E941F02DC01CB01BC01CD010E944900BE
:10501000DC01CB019E838D830FC088EC90E09C83E4
:105020008B838B819C810197F1F79C838B838D818E
:105030009E8101979E838D838D819E81009769F764
:1050400014C06F81788589859A850E944900DC01AA
:10505000CB019E838D838D819E819A8389838981F3
:105060009A810197F1F79A838983ABE3B0E0EBE390
:10507000F0E08081282F2F708F85882F90E0829517
:105080009295907F9827807F9827822B8C930E94FF
:105090001B232F960FB6F894DEBF0FBECDBFCF9166
:1050A000DF910895DF93CF9300D000D000D0CDB72B
:1050B000DEB79C838B836D834E838D816E810E94CE
:1050C000FF281A8219826FC08D81882F90E0AC0171
:1050D00042955295507F5427407F54278A81282F2C
:1050E00030E08E81882F90E0820F931F840F951FF0
:1050F000803191057CF48A81282F30E08B819C815E
:10510000FC01E20FF31F80810E94A1278A818F5F3B
:105110008A8349C08D81882F90E0AC0142955295D9
:10512000507F5427407F54278A81282F30E08E817A
:10513000882F90E0820F931F840F951F8031910577
:1051400051F48981882339F481E060E00E94FF28CE
:1051500081E0898328C08D81882F90E0AC01429541
:105160005295507F5427407F54278A81282F30E062
:105170008E81882F90E0820F931F840F951F8032BD
:1051800091058CF48981813071F48A81282F30E077
:105190008B819C81FC01E20FF31F80810E94A1277B
:1051A0008A818F5F8A838A81282F30E08B819C815E
:1051B000FC01E20FF31F80818823C1F08D81882FCD
:1051C00090E0AC0142955295507F5427407F542780
:1051D0008A81282F30E08E81882F90E0820F931FE4
:1051E000840F951F813291050CF46ECF26960FB671
:1051F000F894DEBF0FBECDBFCF91DF910895DF934E
:10520000CF9300D00F92CDB7DEB78A836B838A81AC
:105210008230C8F48B818031B0F48A81882F90E08D
:105220000024969587950794969587950794982FCF
:10523000802D982F8B81890F89838981806889834C
:1052400089810E9479260F900F900F90CF91DF9166
:105250000895DF93CF9300D000D00F92CDB7DEB783
:105260009C838B836D838D81883030F58D81882F71
:1052700090E0880F991F880F991F880F991F8A83C4
:105280008A8180648A838A810E94792619820EC06D
:105290008981282F30E08B819C81FC01E20FF31F74
:1052A00080810E94A12789818F5F898389818830CD
:1052B00078F382E00E9479260F900F900F900F9064
:1052C0000F90CF91DF910895DF93CF9300D00F928D
:1052D000CDB7DEB789836A834B838A816B810E9455
:1052E000FF2889810E94A1270F900F900F90CF91E6
:1052F000DF9108950F931F93DF93CF93CDB7DEB760
:105300002C970FB6F894DEBF0FBECDBF69877A87A2
:105310008B879C8785E0FE013496DF01982F1D92D4
:105320009A95E9F71B8289859A85AB85BC858A3079
:105330009105A105B10590F58985805D0E94A127A1
:1053400035C08B81082F10E089859A85AB85BC8597
:105350002AE030E040E050E0BC01CD010E949C2FEB
:10536000DC01CB01282FCE010496FC01E00FF11FD8
:1053700020838B818F5F8B8389859A85AB85BC85E4
:105380002AE030E040E050E0BC01CD010E949C2FBB
:10539000DA01C90189879A87AB87BC8789859A8595
:1053A000AB85BC850097A105B10559F68B81882F87
:1053B00090E001979A83898310C029813A81CE01B8
:1053C0000496FC01E20FF31F8081805D0E94A127FB
:1053D00089819A8101979A83898389819A81992306
:1053E00064F72C960FB6F894DEBF0FBECDBFCF91F9
:1053F000DF911F910F910895DF93CF93CDB7DEB763
:10540000E1E3F0E080EF8083E2E3F0E08FEF808380
:10541000CF91DF910895DF93CF93CDB7DEB7629739
:105420000FB6F894DEBF0FBECDBF1C8281E08D8326
:1054300082E08E8383E08F8381E689831B8231C182
:10544000A2E3B0E0E2E3F0E08081806F8C93A2E31E
:10545000B0E0E2E3F0E08081482F8B81882F90E07C
:105460009C012C5F3F4F81E090E0022E02C0880F2C
:10547000991F0A94E2F7809584238C931A820AC1BB
:10548000E0E3F0E08081482F50E08A81282F30E06F
:10549000CE010496FC01E20FF31F8081882F90E07B
:1054A0009A0102C0359527958A95E2F7C901817066
:1054B0009070009709F0EBC0E0E3F0E08081482FA6
:1054C00050E08A81282F30E0CE010496FC01E20FE3
:1054D000F31F8081882F90E09A0102C035952795AF
:1054E0008A95E2F7C90181709070009729F38B814A
:1054F000282F30E03A8B298B89899A898130910550
:1055000009F442C029893A89223031052CF489896D
:105510009A89009771F0B8C029893A8922303105FB
:1055200009F45DC089899A898330910509F482C0A4
:10553000ABC08A81282F30E0388B2F878F859889E0
:1055400081309105C1F02F853889223031052CF446
:105550008F859889009761F097C02F853889223010
:10556000310561F08F8598898330910551F08CC0A9
:1055700087E3898389C084E3898386C081E3898343
:1055800083C08FE3898380C08A81282F30E03E87E3
:105590002D878D859E8581309105C1F02D853E85B5
:1055A000223031052CF48D859E85009761F06CC00A
:1055B0002D853E852230310561F08D859E858330B5
:1055C000910551F061C088E389835EC085E38983DA
:1055D0005BC082E3898358C080E3898355C08A8198
:1055E000282F30E03C872B878B859C858130910567
:1055F000C1F02B853C85223031052CF48B859C85B0
:10560000009761F041C02B853C852230310561F067
:105610008B859C858330910551F036C089E3898361
:1056200033C086E3898330C083E389832DC08DE353
:1056300089832AC08A81282F30E03A872987898583
:105640009A8581309105C1F029853A85223031054E
:105650002CF489859A85009761F016C029853A85D2
:105660002230310561F089859A858330910551F0AA
:105670000BC08FE2898308C08AE2898305C08DE26E
:10568000898302C08BE289839981988710C08A81BF
:105690008F5F8A838A81843008F4F2CE8B818F5F9A
:1056A0008B838B81843008F4CBCE29812887888531
:1056B00062960FB6F894DEBF0FBECDBFCF91DF91DB
:1056C0000895DF93CF93CDB7DEB70E94C31780E074
:1056D0000E948B1885E10E94A71880E060E040E0FE
:1056E0000E94C41381E064E040E00E94C413CF91A3
:1056F000DF910895DF93CF9300D0CDB7DEB79A83C3
:1057000089830E94E3170E94F517CE0101960E943B
:105710003C180F900F90CF91DF910895DF93CF93B6
:1057200000D0CDB7DEB78A8319820E947F0F8A81AD
:105730000E94AC0F89810F900F90CF91DF91089557
:10574000DF93CF9300D000D000D0CDB7DEB79D83DC
:105750008C836E831B828C819D81892F9927837016
:105760009070880F991F806A969587958A838C819F
:1057700089830E940F10882391F48A8160E00E943F
:105780004710882361F489810E947510882339F4B9
:105790008E810E947510882311F40E9440118B8124
:1057A00026960FB6F894DEBF0FBECDBFCF91DF9126
:1057B0000895DF93CF93CDB7DEB727970FB6F89450
:1057C000DEBF0FBECDBF9D838C837F836E831B8224
:1057D0008C819D81892F992783709070880F991FE4
:1057E000806A969587958A838C8189830E940F10A1
:1057F0008823E9F48A8160E00E9447108823B9F485
:1058000089810E947510882391F40E942F108823AB
:1058100071F48A8161E00E944710882341F48E81EF
:105820009F810E941511882311F40E9440118B81E1
:1058300027960FB6F894DEBF0FBECDBFCF91DF9194
:105840000895DF93CF93CDB7DEB70E9497070E94EC
:10585000980A0E94581182E060E041E00E94C4135F
:1058600082E061E041E00E94C41383E065E041E032
:105870000E94C41382E060E041E00E94C41382E011
:1058800061E041E00E94C41383E065E041E00E94D2
:10589000C41382E062E041E00E94C41382E063E04E
:1058A00041E00E94C41383E064E041E00E94C4131D
:1058B00082E062E041E00E94C41382E063E041E0E4
:1058C0000E94C41383E064E041E00E94C413CF91BE
:1058D000DF910895DF93CF9300D00F92CDB7DEB75D
:1058E00089838981282F30E03B832A838A819B81A9
:1058F0008230910509F12A813B812330310534F44E
:105900008A819B818130910561F036C02A813B817B
:1059100023303105E1F08A819B818430910511F1BA
:105920002BC082E060E041E00E94131582E061E05C
:1059300040E00E94131520C082E060E041E00E9438
:10594000131582E061E040E00E94131515C082E06B
:1059500062E041E00E94131582E063E040E00E94B3
:1059600013150AC082E062E041E00E94131582E054
:1059700063E040E00E9413150F900F900F90CF91BD
:10598000DF910895DF93CF9300D00F92CDB7DEB7AC
:1059900089838981282F30E03B832A838A819B81F8
:1059A0008230910509F12A813B812330310534F49D
:1059B0008A819B818130910561F036C02A813B81CB
:1059C00023303105E1F08A819B818430910511F10A
:1059D0002BC082E060E040E00E94131582E061E0AD
:1059E00041E00E94131520C082E060E040E00E9488
:1059F000131582E061E041E00E94131515C082E0BA
:105A000062E040E00E94131582E063E041E00E9402
:105A100013150AC082E062E040E00E94131582E0A4
:105A200063E041E00E9413150F900F900F90CF910B
:105A3000DF910895DF93CF9300D00F92CDB7DEB7FB
:105A40009A8389836B8389819A810E94CD078B8198
:105A50000E94010889819A810E94CD078B810E9452
:105A600049080F900F900F90CF91DF910895DF9329
:105A7000CF9300D00F92CDB7DEB789838981282FCD
:105A800030E03B832A838A819B818230910509F132
:105A90002A813B812330310534F48A819B81813016
:105AA000910561F036C02A813B8123303105E1F058
:105AB0008A819B818430910511F12BC082E060E0E6
:105AC00040E00E94131582E061E040E00E9413155F
:105AD00020C082E060E040E00E94131582E061E0B7
